:04000000C5EF00F058
:10000800D9CF42F0DACF43F0F3CF44F0F4CF45F044
:100018009EAA97D0BC6ABAA4BA84ABA202D0AB9805
:10002800AB88AECF46F0020E29602DD02950120DB4
:10003800F350710FD96EDA6A100EDF6081D0295043
:10004800120DF350710FD96EDA6ADF503C6E2950E9
:10005800120DF350700FD96EDA6ADF503C243D6EF2
:100068000F0E3D162950120DF350600F3D24D96E26
:10007800DA6A46C0DFFF2950120DF350710FD96EAE
:10008800DA6ADF2A5DD029503C6E3D6A3E683F68D7
:100098005E50406E416A3E5040263F5041223C50DF
:1000A80040183AE13D504118D8A436D00F0151B557
:1000B80005D08A86536B7E8051858A963A503B24B8
:1000C8003C6E0F0E3C163C502A0FD96EDA6A46C0B9
:1000D800DFFF3B2A3A503B243C6E0F0E3C163C5047
:1000E8002A0FD96EDA6A83C03DF00F0E3D16000163
:1000F8007139F00B3D10DF6E3B2A3A503B243C6EC1
:100108000F0E3C163C502A0FD96EDA6A2638F00BCF
:100118002410DF6E3B2A14D00F0151B505D08A8612
:10012800536B7E8051858A963A503B243C6E0F0E65
:100138003C163C502A0FD96EDA6A46C0DFFFEAD770
:10014800292A7EA015D08A843B500AE03A502A0F0B
:10015800D96EDA6ADF50AD6E3A2A0F0E3A163B06B0
:10016800BAB404D03B5002E10F0151957E908A94B5
:1001780045C0F4FF44C0F3FF43C0DAFF42C0D9FFD3
:10018800110038EF03F06FEC01F054EC03F02A0E85
:10019800206E236A256A246A266AD58E0F014A854D
:1001A800F28EF28CF2A47FD0827A57C0D6FF58C064
:1001B800D7FFF294F29E5F0E2124F66E3D0E2220A8
:1001C800F76E0800F5CF27F027AC0AD04FEC03F004
:1001D80020503F0B4C6E2750800B4C124CC027F020
:1001E80027C003F07F0E03160FE0A182270627C061
:1001F80003F003160BE0275060D8F5CF59F00A003A
:10020800F5CF5AF0B18002D0B190276AF28EF29EF3
:100218002128036E000E2220046E5F0E0324F66E62
:100228003D0E0420F76E0800F5CF28F028AC0AD060
:100238004FEC03F020503F0B4C6E2850800B4C12B3
:100248004CC028F028C003F07F0E031610E07E8211
:10025800280628C003F003160DE028502ED8F5CF45
:100268005BF00A00F5CF5CF00F014E8103D00F015F
:100278004E91286AF28E5D5015E1020E2126000E7D
:10028800222221C047F022C048F0010E4A6EA00E7B
:10029800496E19EC03F047C021F048C022F0040E63
:1002A8005D6E01D05D069EA203D0296A9E92BA9423
:1002B800E0EC01F0F0EC02F075D77F0B036E046AF6
:1002C800D89003360436FF0E0324F66E3E0E042043
:1002D800F76E09001200600ED36E040ED26E400E47
:1002E8009B6E896A100E926E0F01386B8A6AC30E74
:1002F800936E396B030E616E8B6AC00E946E3A6B07
:10030800F19E130ED56E3C0ED76EB00ED66ED6CFBC
:1003180057F0D7CF58F0F294F29A0A0EBA6EF90E47
:10032800BB6EBC6A9E929D92300EB16EB46AD80EB6
:10033800B36EF00EB26EB2CF59F0B3CF5AF0A192AD
:10034800A092010E516F630E526F536B7E907D80A9
:10035800300E4E6F4D6BD80E506FF00E4F6F4FCF63
:100368005BF050CF5CF07E927D920A0E4A6F4B692B
:100378004C6B7E947D949D9A9D98480EB86E900E15
:10038800AB6E260EAC6E070EAF6EB06A9D8A9D9856
:100398009E980001706B716B826B836B3A6A3B6A43
:1003A800780E5E6E296A506A516A526A536A216AE7
:1003B800226A040E5D6E040C7EA406D0012A030E88
:1003C8000116022A02167E94A1A227D0A19259C032
:1003D800B2FF5AC0B3FF010E016E27C048F07F0E6E
:1003E800481615E027AE06D024040EE0552A504AD8
:1003F800512A0AD0020E241807E055065050511011
:1004080003E05006D8A05106070E5516270627C048
:1004180048F07F0E4816D8B4B1907EA228D07E92BC
:100428005BC04FFF5CC050FF010E026E28C048F051
:100438007F0E481615E028AE06D026040EE0562A90
:10044800524A532A0AD0020E261807E0560652507E
:10045800531003E05206D8A05306070E5616280676
:1004680028C048F07F0E481602E10F014E91015056
:1004780004E055509EEC02F003D0080E9EEC02F00A
:10048800025003E056504CEF02F0080E4CEF02F019
:10049800476E3FD0899C8B908B828B888B848B8610
:1004A8001200898C8B908B828B888B948B861200A0
:1004B800898C8B808B928B988B948B861200898C7D
:1004C8008B908B928B888B948B861200899C8B9057
:1004D8008B928B888B848B961200898C8B908B9255
:1004E8008B888B948B961200898C8B808B828B984F
:1004F8008B948B961200898C8B908B828B888B9433
:100508008B961200898C8B808B928B888B848B9630
:1005180012004750BFE0010AC4E0030AC9E0010A1B
:10052800CEE0070AD3E0010AD8E0030ADDE0010AB9
:10053800E2E0E8D7476E3FD0899489928980898E16
:10054800898A89861200898489928980898E899A04
:1005580089861200898489828990899E899A8986E8
:100568001200898489928990898E899A89861200D5
:10057800899489928990898E898A899612008984BA
:1005880089928990898E899A8996120089848982AC
:100598008980899E899A899612008984899289809E
:1005A800898E899A89961200898489828990898E90
:1005B800898A899612004750BFE0010AC4E0030AFD
:1005C800C9E0010ACEE0070AD3E0010AD8E0030A2D
:1005D800DDE0010AE2E0E8D781A204D08A9A236A22
:1005E800246A0ED0040E23640AD0245008E18A8AB3
:1005F800010E27AE020E246E506A516A01D0232ADA
:1006080081A004D08A98256A266A1200040E2564FF
:100618000AD0265008E18A88010E28AE020E266EFE
:10062800526A536A1200252A120049504A1017E0EC
:10063800010E4B6E04D0D89049364A364B2A4AAE42
:10064800FAD74950475C4A50485804E34950475E36
:100658004A50485AD8904A3249324B2EF2D747C0AE
:1006680047F048C048F0120000EE60F0240EEE6A31
:10067800E806FDE100EE21F01B0EEE6AE806FDE15A
:1006880000EE4DF00A0EEE6AE806FDE1000EF86E87
:060698000001C7EF00F0B5
:1006A800010E016E026E556A566A276A286A1200A0
:100D3C0020372039E00B20332025202520253508AD
:040D4C00206F120002
:103D5E000087878F8F9F9F9F9F9F9F9F9F9F9F9F54
:103D6E009F9F9F9F9F9F9F9F9F9F9F9F9F9F9F9F55
:103D7E009F9F9F9F9F9F9F9F9F9F9F9F9F9F9F9F45
:103D8E009F9F9F9F9F9F9F9F9F9F9F9F9F9F9F9F35
:103D9E009F9F9F9F9F9F9F9F9F9F9F9F9F9F9F9F25
:103DAE009F9F9F9F9F9F9F9F9F9F9F9F9F9F9F9F15
:103DBE009F9F9F9F9F9F9F9F9F9F9F9F9F9F9F9F05
:103DCE009F9F9F9F9F9F9F9F9F9F9F9F9F9F9F9FF5
:103DDE009F9F9F9F9F9F9F9F9F9F9F9F9F9F9F9FE5
:103DEE009F9F9F9F9F9F9F9F9F9F9F9F9F9F9F9FD5
:103DFE009F9F9F9F9F9F9F9F9F9F9F9F9F9F9F9FC5
:103E0E009F8F8F878707070F0F1F1F1F1F1F1F1FD4
:103E1E001F1F1F1F1F1F1F1F1F1F1F1F1F1F1F1FA4
:103E2E001F1F1F1F1F1F1F1F1F1F1F1F1F1F1F1F94
:103E3E001F1F1F1F1F1F1F1F1F1F1F1F1F1F1F1F84
:103E4E001F1F1F1F1F1F1F1F1F1F1F1F1F1F1F1F74
:103E5E001F1F1F1F1F1F1F1F1F0F0F070700000011
:103E6E000000000000000087878F8F9F9F9F9F9FFD
:103E7E009F9F9F9F9F9F9F9F9F9F9F9F9F9F9F9F44
:103E8E009F9F9F9F9F9F9F9F9F9F9F8F8F87870023
:103E9E0000000000000000000087078F0F9F1F9F8B
:103EAE001F9F1F9F1F9F1F9F1F9F1F9F1F8F0F874C
:103EBE000707870F8F1F9F1F9F1F9F1F9F1F9F1FEC
:103ECE009F1F9F1F9F1F9F1F9F1F9F1F9F1F9F1FF4
:103EDE009F1F9F1F9F0F8F078787078F0F9F1F9F04
:103EEE001F9F1F9F1F9F1F9F1F9F1F9F1F8F0F870C
:103EFE0007FFFFFFFFB03CCB7D589EE0B1E6BE331F
:103F0E00C82CCF99D4F0D87EDC73DFF4E11AE4F636
:103F1E00E596E706E94DEA71EB78EC67ED3FEE05C5
:103F2E00EFBAEF60F0FAF089F10DF288F2FBF2676A
:103F3E00F3CBF32AF483F4D7F427F572F5B9F5FC35
:103F4E00F53CF679F6B4F6EBF620F752F783F7B1B7
:103F5E00F7DDF708F830F858F87DF8A2F8C5F8E65E
:103F6E00F807F926F944F962F97EF999F9B4F9CD11
:103F7E00F9E6F9FEF915FA2CFA42FA57FA6CFA80BC
:103F8E00FA94FAA7FAB9FACBFADDFAEEFAFEFA0FBC
:103F9E00FB1EFB2EFB3DFB4CFB5AFB68FB76FB83AB
:103FAE00FB90FB9DFBA9FBB6FBC2FBCDFBD9FBE453
:103FBE00FBEFFBFAFB04FC0EFC18FC22FC2CFC367F
:103FCE00FC3FFC48FC51FC5AFC63FC6BFC73FC7C14
:103FDE00FC84FC8CFC93FC9BFCA2FCAAFCB1FCB800
:103FEE00FCBFFCC6FCCDFCD3FCDAFCE0FCE7FCED30
:023FFE00FC00C5
:020000040020DA
:08000000FFFFFFFFFFFFFFFF00
:020000040030CA
:0E000000FF081F3CFFBF81FF03C003E0034069
:00000001FF
