:04000000C4EF00F059
:10000800D9CF4AF0DACF4BF0F3CF4CF0F4CF4DF024
:100018009EAA96D0BC6ABAA4BA84ABA202D0AB9806
:10002800AB88AECF4EF0020E0D602DD00D50120DE4
:10003800F3501F0FD96EDA6A100EDF6080D00D50B2
:10004800120DF3501F0FD96EDA6ADF50446E0D504F
:10005800120DF3501E0FD96EDA6ADF504424456E34
:100068000F0E45160D50120DF3500E0F4524D96E84
:10007800DA6A4EC0DFFF0D50120DF3501F0FD96E14
:10008800DA6ADF2A5CD00D50446E456A46684768D4
:100098005B50486E496A46504826475049224450AA
:1000A800481839E145504918D8A435D00F0151B541
:1000B80005D08A86536B7E8051858A9642504324A8
:1000C800446E0F0E44164450320FD96EDA6A4EC091
:1000D800DFFF432A42504324446E0F0E4416445017
:1000E800320FD96EDA6A31C045F00F0E45161F3847
:1000F800F00B4510DF6E432A42504324446E0F0E26
:1001080044164450320FD96EDA6A0738F00B0510DE
:10011800DF6E432A14D00F0151B505D08A86536B80
:100128007E8051858A9642504324446E0F0E4416B1
:100138004450320FD96EDA6A4EC0DFFFEAD70D2A73
:100148007EA015D08A8443500AE04250320FD96EFF
:10015800DA6ADF50AD6E422A0F0E42164306BAB471
:1001680004D0435002E10F0151957E908A944DC00E
:10017800F4FF4CC0F3FF4BC0DAFF4AC0D9FF1100AF
:10018800E5EF02F055EC01F0F0EC02F0046A066AC3
:10019800056A076AD58E4A85F28EF28C08A215D0B8
:1001A80002C051F0F00E5116D8B403C05BF002281B
:1001B8000AE1032804E153C0D6FF54C0D7FF035017
:1001C80002E11F6A316A016A086AF2A452D0827A8F
:1001D80053C0D6FF54C0D7FFF294315024E01F50CB
:1001E80022E0F29E1E500E0FD96EDA6ADF50096EB9
:1001F8001E2A0F0E1E161F0609C051F07F0E51163B
:100208000FE0A182090609C051F051160BE0095010
:100218003AD8F5CF55F00A00F5CF56F0B18002D0A4
:10022800B190096AF28E315024E0F29E3050200FCE
:10023800D96EDA6ADF500B6E302A0F0E301631068F
:100248000BC051F07F0E511610E07E820B060BC0DA
:1002580051F051160DE00B5016D8F5CF57F00A00A3
:10026800F5CF58F00F014E8103D00F014E910B6A64
:10027800F28E9EA203D00D6A9E92BA94BDEC01F054
:10028800BDEC02F08BD77F0B516E526AD890513675
:100298005236FF0E5124F66E3E0E5220F76E0900BC
:1002A8001200600ED36E040ED26E400E9B6E896AE9
:1002B800100E926E0F01386B8A6AC30E936E396BFB
:1002C800030E616E8B6AC00E946E3A6BF19E130E2C
:1002D800D56E3C0ED76EB00ED66ED6CF53F0D7CFB4
:1002E80054F0F294F29A0A0EBA6EF90EBB6EBC6A1A
:1002F8009E929D92300EB16EB46AD80EB36EF00E17
:10030800B26EB2CF55F0B3CF56F0A192A092010EC3
:10031800516F630E526F536B7E907D80300E4E6F1F
:100328004D6BD80E506FF00E4F6F4FCF57F050CF28
:1003380058F07E927D920A0E4A6F4B694C6B7E9400
:100348007D949D9A9D98480EB86E900EAB6E260EC1
:10035800AC6E070EAF6EB06A9D8A9D989E981E6A15
:100368001F6A306A316A426A436A780E5B6E0D6AA8
:1003780012007EA406D0592A030E59165A2A5A1674
:100388007E94A1A21FD0A19255C0B2FF56C0B3FF60
:10039800010E596E09C050F07F0E50160DE009AEDF
:1003A80004D0050406E00A2A04D0020E0518D8A4D1
:1003B8000A06070E0A16090609C050F07F0E5016E5
:1003C800D8B4B1907EA220D07E9257C04FFF58C0BB
:1003D80050FF010E5A6E0BC050F07F0E50160DE004
:1003E8000BAE04D0070406E00C2A04D0020E07184E
:1003F800D8A40C06070E0C160B060BC050F07F0E87
:10040800501602E10F014E91595004E00A506BEC6E
:1004180002F003D0080E6BEC02F05A5003E00C50C7
:1004280019EF02F0080E19EF02F04F6E3FD0899CC9
:100438008B908B828B888B848B861200898C8B9017
:100448008B828B888B948B861200898C8B808B9205
:100458008B988B948B861200898C8B908B928B88CF
:100468008B948B861200899C8B908B928B888B84C3
:100478008B961200898C8B908B928B888B948B96A1
:100488001200898C8B808B828B988B948B961200B0
:10049800898C8B908B828B888B948B961200898C9D
:1004A8008B808B928B888B848B9612004F50BFE089
:1004B800010AC4E0030AC9E0010ACEE0070AD3E052
:1004C800010AD8E0030ADDE0010AE2E0E8D74F6E4E
:1004D8003FD0899489928980898E898A8986120079
:1004E800898489928980898E899A8986120089846B
:1004F80089828990899E899A89861200898489923D
:100508008990898E899A898612008994899289901E
:10051800898E898A89961200898489928990898E20
:10052800899A89961200898489828980899E899A04
:1005380089961200898489928980898E899A8996F8
:100548001200898489828990898E898A8996120005
:100558004F50BFE0010AC4E0030AC9E0010ACEE037
:10056800070AD3E0010AD8E0030ADDE0010AE2E065
:10057800E8D781A204D08A9A046A056A0CD0040ECE
:10058800046408D0055006E18A8A010E09AE020EFD
:10059800056E01D0042A81A004D08A98066A076AE9
:1005A8001200040E06640BD0075009E18A880BAECE
:1005B80003D0010E076E010C020E076E020C062A0C
:1005C800120000EE01F0430EEE6AE806FDE1000EAF
:1005D800F86E0001C6EF00F0010E596E5A6E0A6AF5
:0805E8000C6A096A0B6A12009B
:103EFE0000FFFFFFFFB03CCB7D589EE0B1E6BE3326
:103F0E00C82CCF99D4F0D87EDC73DFF4E11AE4F636
:103F1E00E596E706E94DEA71EB78EC67ED3FEE05C5
:103F2E00EFBAEF60F0FAF089F10DF288F2FBF2676A
:103F3E00F3CBF32AF483F4D7F427F572F5B9F5FC35
:103F4E00F53CF679F6B4F6EBF620F752F783F7B1B7
:103F5E00F7DDF708F830F858F87DF8A2F8C5F8E65E
:103F6E00F807F926F944F962F97EF999F9B4F9CD11
:103F7E00F9E6F9FEF915FA2CFA42FA57FA6CFA80BC
:103F8E00FA94FAA7FAB9FACBFADDFAEEFAFEFA0FBC
:103F9E00FB1EFB2EFB3DFB4CFB5AFB68FB76FB83AB
:103FAE00FB90FB9DFBA9FBB6FBC2FBCDFBD9FBE453
:103FBE00FBEFFBFAFB04FC0EFC18FC22FC2CFC367F
:103FCE00FC3FFC48FC51FC5AFC63FC6BFC73FC7C14
:103FDE00FC84FC8CFC93FC9BFCA2FCAAFCB1FCB800
:103FEE00FCBFFCC6FCCDFCD3FCDAFCE0FCE7FCED30
:023FFE00FC00C5
:020000040020DA
:08000000FFFFFFFFFFFFFFFF00
:020000040030CA
:0E000000FF081F3CFFBF81FF03C003E0034069
:00000001FF
